:020000020000FC
:040000000C94490112
:10002C000C94A701249024242444218422880C902D
:10003C00149053656D61666F726F20303A2056656F
:10004C00726D656C686F2C2053656D61666F726F95
:10005C0020313A205665726D656C686F2C205365A3
:10006C006D61666F726F20323A205665726D656CE9
:10007C00686F2C2053656D61666F726F20333A2068
:10008C005665726D656C686F0A2353656D61666F9A
:10009C00726F20303A2056657264652C2053656D62
:1000AC0061666F726F20313A2056657264652C2040
:1000BC0053656D61666F726F20323A205665726DB2
:1000CC00656C686F2C2053656D61666F726F2033A1
:1000DC003A205665726D656C686F0A2353656D61C5
:1000EC00666F726F20303A2056657264652C20530F
:1000FC00656D61666F726F20313A20416D6172657A
:10010C006C6F2C2053656D61666F726F20323A20D4
:10011C005665726D656C686F2C2053656D61666FEA
:10012C00726F20333A205665726D656C686F0A23C6
:10013C0053656D61666F726F20303A20566572643C
:10014C00652C2053656D61666F726F20313A2056B5
:10015C0065726D656C686F2C2053656D61666F728E
:10016C006F20323A2056657264652C2053656D61A0
:10017C00666F726F20333A205665726D656C686FCE
:10018C000A2353656D61666F726F20303A20416DA2
:10019C006172656C6F2C2053656D61666F726F2098
:1001AC00313A205665726D656C686F2C2053656D05
:1001BC0061666F726F20323A20416D6172656C6FAF
:1001CC002C2053656D61666F726F20333A20566533
:1001DC00726D656C686F0A2353656D61666F726F23
:1001EC0020303A205665726D656C686F2C20536513
:1001FC006D61666F726F20313A205665726D656C59
:10020C00686F2C2053656D61666F726F20323A20D7
:10021C005665726D656C686F2C2053656D61666FE9
:10022C00726F20333A2056657264650A2300536559
:10023C006D61666F726F20303A205665726D656C19
:10024C00686F2C2053656D61666F726F20313A2098
:10025C005665726D656C686F2C2053656D61666FA9
:10026C00726F20323A205665726D656C686F2C2067
:10027C0053656D61666F726F20333A20416D617208
:10028C00656C6F0A23002FEF2DBF28E02EBF20E0F6
:10029C002093C50027E62093C40026E02093C200DB
:1002AC0028E02093C1002FE02093890022E42093C2
:1002BC00880020E0209380002DE020938100109195
:1002CC006F00126010936F0078942FEF24B927B948
:1002DC002AB951E043D03FD055D08894662351F5CC
:1002EC00539520E052130C947C0143D021E052131F
:1002FC000C94810147D022E052130C9486014FD00C
:10030C0023E052130C948B0153D024E052130C9421
:10031C00900157D025E052130C9495015FD026E044
:10032C0052130C949A0167D027E052130C94A0013D
:10033C0050E01FD035B94BB908B913D018B911D04A
:10034C00CCCF61501A951F3129F408D00A950F3083
:10035C0009F401D0189509E00061089519E01062C4
:10036C000895D0E0CCE0B0E8B150C040D040E0F708
:10037C0008956FE0F0E0E0E335914491F0E0EEE3B6
:10038C0043D0089569E1F0E0E2E33591449109E04E
:10039C00006110E01062F0E0E6E936D0089565E007
:1003AC00F0E0E4E335914491F0E0E8EE2DD00895CF
:1003BC006CE3F0E0E6E335914491F1E0ECE324D01A
:1003CC00089565E0F0E0E8E33591449100E00061C8
:1003DC0015E01062F1E0EEE817D0089569E1F0E065
:1003EC00EAE33591449104E0006115E01062F1E01C
:1003FC00E4EE0AD0089565E0F0E0ECE33591449129
:10040C00F2E0EAE301D008952591233239F0B0915E
:0E041C00C000B5FFFCCF2093C600F6CF0895B8
:00000001FF
