:020000020000FC
:040000000C941F003D
:10002C000C944100249024242444218422880C9094
:10003C0014902DE32093890029E02093880020E080
:10004C00209380002DE02093810010916F001260AE
:10005C0010936F0078942FEF24B927B92AB950E088
:10006C0045D041D04ED035B94BB908B942D018B9AA
:10007C0040D00C943900615020E062130C94700055
:10008C00539520E052130C944C003BD021E05213BA
:10009C000C9451003ED022E052130C94560041D0E7
:1000AC0023E052130C945B0044D024E052130C94C4
:1000BC00600047D025E052130C9465004AD026E02E
:1000CC0052130C946A004DD027E052130C9470001C
:1000DC0050E017D013951A3229F408D003950A3141
:1000EC0009F401D0189500E00061089510E0106249
:1000FC000895D0E0C9E1B0E0B150C040D040E0F785
:10010C0008956EE0F0E0E0E335914491EFDFEBDF32
:10011C00089569E1F0E0E2E335914491E7DFE3DF34
:10012C00089564E0F0E0E4E335914491DFDFDBDF38
:10013C0008956CE3F0E0E6E335914491D7DFD3DF2B
:10014C00089564E0F0E0E8E335914491CFDFCBDF34
:10015C00089569E1F0E0EAE335914491C7DFC3DF2C
:10016C00089564E0F0E0ECE335914491BFDFBBDF30
:02017C000895E4
:00000001FF
