:020000020000FC
:040000000C946C00F0
:10002C000C94C400249024242444218422880C9011
:10003C00149053303A522C2053313A522C205332D4
:10004C003A522C2053333A5253303A472C205331E6
:10005C003A592C2053323A522C2053333A525330C3
:10006C003A472C2053313A522C2053323A522C20FE
:10007C0053333A5253303A472C2053313A522C20B6
:10008C0053323A472C2053333A5253303A592C209E
:10009C0053313A522C2053323A592C2053333A5282
:1000AC0053303A522C2053313A522C2053323A527C
:1000BC002C2053333A4753303A522C2053313A5276
:1000CC002C2053323A522C2053333A5920E02093AF
:1000DC00C50027E62093C40026E02093C20028E048
:1000EC002DE32093890029E02093880020E02093C1
:1000FC0080002DE02093810010916F00126010930E
:10010C006F0078942FEF24B927B92AB951E043D066
:10011C003FD052D0662351F5539520E052130C94E6
:10012C00980044D021E052130C949D0045D022E05D
:10013C0052130C94A2004AD023E052130C94A70043
:10014C004BD024E052130C94AC004CD025E052134D
:10015C000C94B10051D026E052130C94B60056D03A
:10016C0027E052130C94BC0050E020D035B94BB9A9
:10017C0008B914D018B912D00C94900061501A958B
:10018C001F3129F408D00A950F3009F401D01895C5
:10019C0009E00061089519E010620895D0E0CCE008
:1001AC00B0E8B150C040D040E0F708956FE0F0E007
:1001BC00E0E335914491089569E1F0E0E2E3359193
:1001CC00449109E0006110E01062089565E0F0E0F0
:1001DC00E4E33591449108956CE3F0E0E6E3359166
:1001EC004491089565E0F0E0E8E33591449100E036
:1001FC00006115E01062089569E1F0E0EAE33591E1
:10020C00449104E0006115E01062089565E0F0E0AF
:08021C00ECE3359144910895D3
:00000001FF
