:020000020000FC
:040000000C941F003D
:10002C000C944100249024242444218422880C9094
:10003C0014902DE32093890029E02093880020E080
:10004C00209380002DE02093810010916F001260AE
:10005C0010936F0078942FEF24B927B92AB950E088
:10006C0017D013D020D035B94BB908B914D018B962
:10007C0012D00C943900539513951A3229F408D0E8
:10008C0003950A3109F401D0189500E00061089538
:10009C0010E010620895D0E0C9E1B0E0B150C0406A
:1000AC00D040E0F70895F0E0E0E3359144910895F5
:1000BC00F0E0E2E3359144910895F0E0E4E335910A
:1000CC0044910895F0E0E6E3359144910895F0E011
:1000DC00E8E3359144910895F0E0EAE335914491D9
:0C00EC000895F0E0ECE335914491089594
:00000001FF
