:020000020000FC
:040000000C946C00F0
:10002C000C949800249024242444218422880C903D
:10003C00149053303A522C2053313A522C205332D4
:10004C003A522C2053333A5253303A472C205331E6
:10005C003A592C2053323A522C2053333A525330C3
:10006C003A472C2053313A522C2053323A522C20FE
:10007C0053333A5253303A472C2053313A522C20B6
:10008C0053323A472C2053333A5253303A592C209E
:10009C0053313A522C2053323A592C2053333A5282
:1000AC0053303A522C2053313A522C2053323A527C
:1000BC002C2053333A4753303A522C2053313A5276
:1000CC002C2053323A522C2053333A5920E02093AF
:1000DC00C50027E62093C40026E02093C20028E048
:1000EC002DE32093890029E02093880020E02093C1
:1000FC0080002DE02093810010916F00126010930E
:10010C006F0078942FEF24B927B92AB950E045D065
:10011C0041D04ED035B94BB908B942D018B940D0FE
:10012C000C949000615020E062130C94C70053951E
:10013C0020E052130C94A3003BD021E052130C94FA
:10014C00A8003ED022E052130C94AD0041D023E025
:10015C0052130C94B20044D024E052130C94B70008
:10016C0047D025E052130C94BC004AD026E0521321
:10017C000C94C1004DD027E052130C94C70050E0F2
:10018C0017D013951A3229F408D003950A3109F4C3
:10019C0001D0189500E00061089510E010620895F8
:1001AC00D0E0C9E1B0E0B150C040D040E0F70895D4
:1001BC006EE0F0E0E0E335914491EFDFEBDF089582
:1001CC0069E1F0E0E2E335914491E7DFE3DF089584
:1001DC0064E0F0E0E4E335914491DFDFDBDF089588
:1001EC006CE3F0E0E6E335914491D7DFD3DF08957B
:1001FC0064E0F0E0E8E335914491CFDFCBDF089584
:10020C0069E1F0E0EAE335914491C7DFC3DF08957B
:10021C0064E0F0E0ECE335914491BFDFBBDF08957F
:00000001FF
